:020000020000FC
:100000002FE52DBF24E02EBF0E94250036B33370AC
:10001000303031F0313049F0323061F0333081F03E
:1000200009B313B3010F02BB0FC009B313B3011B14
:1000300002BB0AC009B313B30E94370022BB04C03D
:1000400009B30E94440022BBFFCF0F930FB70F9359
:1000500000270ABB04BB0FEF0BBB05BB01BBB89865
:10006000B998C09AC19A0F910FBF0F9108951123AB
:1000700019F42FEF3FEF0895302F20E0311718F0DB
:10008000311B2395FBCF08953F930F921F921FB60C
:100090001F92003041F0302F21E0332331F0239FB5
:1000A000202D3A95FACF20E000C01F901FBE1F9070
:1000B0000F903F91089505E008950AE013E0089538
:00000001FF
